:04000000803117280C
:100008007E1480310B1C09280A2815282700961E03
:100018000E280F281328961201302000A0008B10FC
:100028000B107E100900803119288131432180315D
:10003800A200F901FA01FB01FC01FD01A001A101E7
:100048007E102000803128282100191499141915D0
:100058009911191699160330F8008A30F7005630AE
:10006800890B3428F70B3428F80B342821008C121C
:100078000C128E120E128E118D1322008C120C127D
:100088008E120E128E118D1321008D1623009D13D2
:10009800210011129D0123008C018D018E018131F7
:1000A8003B21803122008D17FD010730FC0005300F
:1000B800FB000B308031F7208031FA0007308031A7
:1000C800F7208031F90005308031F7208031200099
:1000D800A1002003031D7128722888287908F000E0
:1000E8002108F1007A0880319C2080313330F800F3
:1000F800BB30F700E030890B7F28F70B7F28F80B1F
:100108007F282000A0015628F001F101003080313D
:100118009C2080310B30F8002630F7005E30890BC8
:100128009328F70B9328F80B932856288031172823
:10013800F400F501F6017408F200750AA428F236F5
:10014800890BA32872080139F300F30EF30D200080
:100158000C087306DF3973068C007008F200750A04
:10016800B628F236890BB52872080139F300F30E68
:100178000C087306EF3973068C007108F200750AD3
:10018800C628F236890BC52872080139F300F30E28
:10019800F30D0E087306DF3973068E008E15A63030
:1001A800890BD428003220008E11A630890BDA285A
:1001B80000320130F5070030F63D7608803AF2004B
:1001C80080307202031DEA2808307502031CED28EE
:1001D800EE289F2820000E16A630890BF128003241
:1001E80020000E120800F00019293F30F1003929CB
:1001F8000630F10039295B30F10039294F30F10020
:1002080039296630F10039296D30F10039297D30FE
:10021800F10039290730F10039297F30F1003929F7
:100228006F30F1003929F10139297008003A0319B2
:10023800F928013A0319FC28033A0319FF28013A5F
:1002480003190229073A03190529013A031908294C
:10025800033A03190B29013A03190E290F3A031916
:100268001129013A031914291729710808002700D0
:10027800950194168B108B150B138B1708004B34B4
:020000040001F9
:04000E00E42FFF1FBD
:00000001FF
